:100000000C942A000C9447000C9447000C94470071
:100010000C9447000C9447000C9447000C94470044
:100020000C9447000C9447000C9447000C94470034
:100030000C9447000C9447000C9447000C94470024
:100040000C9447000C9447000C9447000C94470014
:100050000C94470011241FBECFE5D8E0DEBFCDBF12
:1000600010E0A0E6B0E0E4E0FDE002C005900D92F3
:10007000A036B107D9F710E0A0E6B0E001C01D92AC
:10008000A036B107E1F70E948B010C9480060C9416
:1000900000000F930FEF05BB00000000000008E018
:1000A00000000A95E9F70F9108950F9300E005BB52
:1000B000000000000000000009E000000A95E9F7D8
:1000C0000F9108950E94550080E691E00197F1F7A5
:1000D00008950E9449000E944900000000000000AD
:1000E0000000000000000000000000000000000010
:1000F0000000000000000000000000000000000000
:10010000000000000895D1DF21E030E040E050E041
:10011000682F70E0C901862397238217930711F493
:10012000B8DF01C0C2DF220F331F4F5F5F4F48307F
:10013000510581F7AEDFADDFACDFABDF08950F9384
:100140001F93CF93DF938C01EB010E94550080E653
:1001500091E00197F1F70E946900A7DF21E030E00C
:1001600080E090E02115310511F493DF01C09DDF9F
:10017000220F331F019688309105A1F78ADF89DFAE
:1001800088DF87DF60E070E021C0F801E60FF71F2D
:1001900080818BDF21E030E040E050E0E82FF0E0AC
:1001A000C9018E239F238217930711F472DF01C0C8
:1001B0007CDF220F331F4F5F5F4F4830510581F7BF
:1001C00068DF67DF66DF65DF6F5F7F4F6C177D0776
:1001D000E4F2DF91CF911F910F9108951BBA8EE148
:1001E0008ABB18BA17BA81E085BB84BB82BB81BBCE
:1001F0000895982F8BB38F608BBB623079F063309A
:1002000018F4613089F40DC0633029F0643061F472
:100210008BB38D7008C08BB38B7005C08BB38770A8
:1002200002C08BB38F708BBB923079F0933021F08A
:10023000913031F080E0089580E0CD9909C003C08D
:1002400080E0CE9905C081E0089580E0CF9B81E0F9
:10025000089581E061E00E94F900813011F481E3AA
:10026000089582E061E00E94F900813011F482E398
:10027000089583E061E00E94F900813011F483E386
:10028000089581E062E00E94F900813011F484E376
:10029000089582E062E00E94F900813011F485E364
:1002A000089583E062E00E94F900813011F486E352
:1002B000089581E063E00E94F900813011F487E342
:1002C000089582E063E00E94F900813011F488E330
:1002D000089583E063E00E94F900813011F489E31E
:1002E000089582E064E00E94F900813011F480E317
:1002F000089581E064E00E94F900813011F48FE5F7
:10030000089583E064E00E94F900813011F08FEFDE
:1003100008958FE408952F923F924F925F926F92CB
:100320007F928F929F92AF92BF92CF92DF92EF9285
:10033000FF920F931F93DF93CF93CDB7DEB7C057D4
:10034000D0400FB6F894DEBF0FBECDBF1BBA8EE112
:100350008ABB18BA17BA81E085BB84BB82BB81BB5C
:10036000FE0131969E01255D3F4FAF963FAF2EAF08
:10037000AF971192AF966EAD7FADAF97E617F707C7
:10038000C1F72E010894411C511CC2016AE270E0C1
:100390000E949F001AE2812E912C22243324AB96D6
:1003A0001FAE1EAEAB97A9961FAE1EAEA9977724BF
:1003B0007A9411E3A7961FAE1EAEA797B2E0CB2E9C
:1003C000D12CA2E0EA2EF12CF2E0AF2EB12CE8E520
:1003D0006E2E0FEFCE014C96E1969FAF8EAFE19758
:1003E000AD965FAE4EAEAD97AC965FACAC97AD96AA
:1003F0004FACAD970E942901853309F4B7C086330D
:1004000098F4823309F453C4833338F4803309F405
:10041000B3C1813309F014C21DC0833309F44CC049
:10042000843309F00DC275C0883309F426C18933BD
:1004300038F4863309F4C7C0873309F001C2F0C02D
:100440008F3409F4EDC18F3509F4D5C1893309F032
:10045000F7C154C119821A821B8290EF9C8326E94E
:100460002D831E820F83088719860A8783EC8B876A
:100470006C860D871E861F86188A198A1A8A0B8B2E
:100480001C8A1D8A1E8A1F8A188E198E9A8F9B8F2E
:100490001C8E1D8E1E8E1F8E18A219A22AA389EBF8
:1004A0008BA30CA31DA21EA21FA280E888A789A768
:1004B0008BEF8AA711E3CBC119821A821B828CE1D0
:1004C0008C831D821E827F82188619861A861B865F
:1004D0006C860D871E861F86088B198A1A8A1B8ACE
:1004E0001C8A7D8A1E8A1F8A188E198E1A8E0B8F7F
:1004F0001C8E7D8E1E8E1F8E18A219A21AA20BA30F
:100500000CA31DA27EA21FA218A619A61AA613E369
:100510009EC119821A821B828CE08C831D821E82EE
:100520007F82188619861A861B866C860D871E8622
:100530000F87188A198A1A8A1B8A7C8A1D8A1E8A42
:100540001F8A188E198E1A8E0B8F7C8E1D8E1E8E12
:100550001F8E18A219A21AA20BA30CA37DA21EA281
:100560001FA218A619A61AA614E371C119821A822D
:100570001B8294E19C831D821E827F8218861986CD
:100580001A861B866C860D871E860F87088B198A34
:100590001A8A1B8A7C8A7D8A1E8A1F8A188E198E67
:1005A0001A8E0B8F7C8E7D8E1E8E1F8E18A219A226
:1005B0001AA20BA30CA37DA27EA21FA218A619A6A5
:1005C0001AA615E344C119821A821B822AE22C83DF
:1005D0001D821E827F82188619861A861B866C866B
:1005E0000D871E861F86188A098B1A8A1B8A1C8A09
:1005F0001D8A7E8A1F8A188E198E1A8E0B8F1C8E6A
:100600001D8E7E8E1F8E18A219A21AA20BA30CA3F8
:100610001DA21EA27FA218A619A61AA616E317C12C
:1006200019821A821B8282E38C831D821E827F8242
:10063000088719860A871B866C860D871E860F879A
:10064000188A098B1A8A1B8A7C8A1D8A7E8A1F8ACD
:10065000188E198E1A8E0B8F7C8E1D8E7E8E1F8E9D
:1006600018A219A21AA20BA30CA37DA21EA27FA2FC
:1006700018A619A61AA617E3EAC019821A821B82C5
:100680001C821D821E821F82088734E239876AE736
:100690006A871B861C860D871E861F86188A198A04
:1006A0001A8A1B8A1C8A1D8A1E8A1F8A188E198E16
:1006B0001A8E1B8E1C8E1D8E1E8E1F8E18A219A2C6
:1006C0001AA21BA21CA21DA21EA21FA218A619A636
:1006D0001AA62FE030E0A9961FAE1EAEA99718E328
:1006E000A7961FAE1EAEA79772E0C72ED12C62E070
:1006F000E62EF12C52E0A52EB12CAEC019821A8242
:100700001B821C821D821E821F82088719860A870F
:1007100073E27B871C860D871E861F86188A198ABE
:100720001A8A1B8A1C8A1D8A1E8A1F8A188E198E95
:100730001A8E1B8E1C8E1D8E1E8E1F8E18A219A245
:100740001AA21BA21CA21DA21EA21FA218A619A6B5
:100750001AA6A9961FAE1EAEA99719E3A7961FAEBB
:100760001EAEA79742E0C42ED12C32E0E32EF12C2E
:1007700022E0A22EB12C6EC019821A821B821C822A
:100780001D821E821F82088784E289878FE18A8703
:100790001B861C860D871E861F86188A198A1A8A50
:1007A0001B8A1C8A1D8A1E8A1F8A188E198E1A8E11
:1007B0001B8E1C8E1D8E1E8E1F8E18A219A21AA2B1
:1007C0001BA21CA21DA21EA21FA218A619A61AA631
:1007D000A9961FAE1EAEA99710E3A7961FAE1EAE38
:1007E000A79792E0C92ED12C82E0E82EF12CB2E03E
:1007F000AB2EB12C2CC0FE0131961192E1962EAD9C
:100800003FADE197E217F307C1F71CA21DA21EA29C
:100810001FA218A619A6A9E28A2E912C1FE517C0BF
:100820003FEF731619F4FEE17F2E02C077247A940D
:1008300088E893E1E0E9F1E03197F1F70197D1F72A
:10084000183319F42FE030E007C0193319F023E012
:1008500030E002C027E030E0812F8853823018F06A
:10086000103309F087C1221633060CF470C1998148
:10087000A9966EAD7FADA997672B09F05EC09A0D62
:1008800099838A818E0D8A838B818C0D8B831C8248
:100890001D821E820F838F858A0D8F8788898E0D1A
:1008A000888B89898C0D898BEA9CC001EB9C900D0B
:1008B000FA9C900D1124BC016C9DC0016D9D900DA2
:1008C0007C9D900D112464E070E00E9459068A8995
:1008D000860F8A8B8C898A0D8C8B8D898E0D8D8BE2
:1008E0008E898C0D8E8B8F89860F8F8B188E198E2B
:1008F0001A8E1B8E8C8D8A0D8C8F8D8D8E0D8D8F0B
:100900008E8D8C0D8E8F8F8D860F8F8F18A219A2D2
:100910001AA21BA20CA38DA18A0D8DA38EA18E0DF0
:100920008EA38FA18C0D8FA318A619A61AA6A79621
:100930008EAD9FADA79702966DC0992331F48A8141
:10094000882319F48B81882379F0A7962EAD3FADCB
:10095000A797263E310544F49A1999838A818E1906
:100960008A838B818C198B831C821D821E820F834C
:100970008F858A198F8788898E19888B89898C1928
:10098000898BEA9CC001EB9C900DFA9C900D112480
:10099000BC016C9DC0016D9D900D7C9D900D11243E
:1009A00064E070E00E94590661958A89860F8A8BFF
:1009B0008C898A198C8B8D898E198D8B8E898C19D7
:1009C0008E8B8F89860F8F8B188E198E1A8E1B8EA9
:1009D0008C8D8A198C8F8D8D8E198D8F8E8D8C19A3
:1009E0008E8F8F8D860F8F8F18A219A21AA21BA22D
:1009F0000CA38DA18A198DA38EA18E198EA38FA110
:100A00008C198FA318A619A61AA6A7968EAD9FAD0E
:100A1000A7970297A7969FAF8EAFA797A7962EADE1
:100A20003FADA7972E3F31054CF02224332461E0DF
:100A300070E0A9967FAF6EAFA9979CC0A7968EADC8
:100A40009FADA797181619061CF42224332492C0D0
:100A500019821A821B821C821D821E821F8292E0D2
:100A6000A916B104C9F4E114F10469F4C114D10464
:100A7000A1F522243324A9961FAE1EAEA997E2E069
:100A8000EE2EF12C77C022E0E216F10431F5C1140C
:100A9000D10409F467C021C0A114B104F1F432E01B
:100AA000E316F104D1F4C114D10451F42224332407
:100AB000A9961FAE1EAEA99772E0C72ED12C5AC0C0
:100AC00062E0C616D10461F522243324A9961FAE34
:100AD0001EAEA997EE24FF241FC072E0A716B10432
:100AE00041F4E114F104E1F482E0C816D10499F56F
:100AF00039C0A114B104A1F4E114F10489F492E025
:100B0000C916D10441F522243324A9961FAE1EAE86
:100B1000A99762E0E62EF12C52E0A52EB12C2AC056
:100B200022E0A216B104B9F432E0E316F10499F41C
:100B300062E0C616D10479F422243324A9961FAEAC
:100B40001EAEA997CC24DD24EE24FF2413C0089404
:100B5000211C311C0FC022243324A9961FAE1EAEC7
:100B6000A99708C022243324A9961FAE1EAEA997C8
:100B7000AA24BB24812F83538630B0F478EC8716E7
:100B8000910409F07AC08C85AB962EAD3FADAB9742
:100B9000232B29F4843608F07BC08F5F19C088238B
:100BA00009F46FC0815014C0193311F01033C9F427
:100BB00034E1831691040CF460C08C85AB966EAD65
:100BC0007FADAB97672B41F4843608F061C08A5F34
:100BD0008C878824992464C0882309F452C08650E5
:100BE000F7CF123309F05CC070E1871691040CF462
:100BF00044C0AB968EAD9FADAB97892B99F5098319
:100C00000A830B831C821D821E820F83088719862C
:100C10000A871B861C860D871E860F87088B098B0B
:100C20000A8B1B8A0C8B0D8B0E8B0F8B188E198EDB
:100C30001A8E1B8E0C8F0D8F0E8F0F8F18A219A27C
:100C40001AA21BA20CA30DA30EA30FA318A619A6EC
:100C50001AA68824992421E030E0AB963FAF2EAF4E
:100C6000AB971EC0FE0131961192AF966EAD7FAD6F
:100C7000AF97E617F707C1F704C00894811C911CD1
:100C80000FC088249924AB961FAE1EAEAB9708C048
:100C90008824992481E090E0AB969FAF8EAFAB970C
:100CA000852D942D6AE270E00E949F00A3CB12E391
:100CB000CECD97FB092E07260AD077FD04D00CD0A5
:100CC00006D000201AF4709561957F4F0895F6F7CD
:100CD000909581959F4F0895AA1BBB1B51E107C0BA
:100CE000AA1FBB1FA617B70710F0A61BB70B881FBC
:100CF000991F5A95A9F780959095BC01CD0108954B
:040D0000F894FFCF95
:00000001FF
