:100000000C942A000C9434000C9434000C943400AA
:100010000C9434000C9434000C9434000C94340090
:100020000C9434000C9434000C9434000C94340080
:100030000C9434000C9434000C9434000C94340070
:100040000C9434000C9434000C9434000C94340060
:100050000C94340011241FBECFE5D8E0DEBFCDBF25
:100060000E9451010C94B7030C9400000F930FEF02
:1000700005BB000000000000000008E000000A9539
:10008000E9F70F9108950F9300E005BB0000000011
:100090000000000008E000000A95E9F70F910895BC
:1000A0000E94430080E691E00197F1F708950E94D5
:1000B00036000E9436000000000000000000000032
:1000C0000000000000000000000000000000000030
:1000D0000000000000000000000000000000000020
:1000E0000895D1DF21E030E040E050E0682F70E07B
:1000F000C901862397238217930711F4B7DF01C044
:10010000C2DF220F331F4F5F5F4F4830510581F729
:10011000ADDFACDFABDFAADF0895EF92FF920F9364
:100120001F93CF93DF937C018B010E94430080E6F5
:1001300091E00197F1F70E94570080E00E94710062
:10014000C0E0D0E007C0F701EC0FFD1F80810E94E6
:1001500071002196C017D107B4F3DF91CF911F91A1
:100160000F91FF90EF9008951BBA8EE18ABB18BAE9
:1001700017BA81E085BB84BB82BB81BB0895982FF1
:100180008BB38F608BBB623079F0633018F46130D1
:1001900089F40DC0633029F0643061F48BB38D7045
:1001A00008C08BB38B7005C08BB3877002C08BB354
:1001B0008F708BBB923079F0933021F0913031F019
:1001C00080E0089580E0CD9909C003C080E0CE9919
:1001D00005C081E0089580E0CF9B81E0089581E033
:1001E00061E00E94BF00813011F481E3089582E054
:1001F00061E00E94BF00813011F482E3089583E042
:1002000061E00E94BF00813011F483E3089581E032
:1002100062E00E94BF00813011F484E3089582E01F
:1002200062E00E94BF00813011F485E3089583E00D
:1002300062E00E94BF00813011F486E3089581E0FE
:1002400063E00E94BF00813011F487E3089582E0EB
:1002500063E00E94BF00813011F488E3089583E0D9
:1002600063E00E94BF00813011F489E3089582E0C9
:1002700064E00E94BF00813011F480E3089581E0C2
:1002800064E00E94BF00813011F48FE5089583E09F
:1002900064E00E94BF00813011F08FEF08958FE479
:1002A00008952F923F924F925F926F927F928F921A
:1002B0009F92AF92BF92CF92DF92EF92FF920F93F5
:1002C0001F93DF93CF93CDB7DEB7AE970FB6F894F9
:1002D000DEBF0FBECDBF0E94B4003E010894611C7A
:1002E000711CF301CE0189961192E817F907E1F725
:1002F0005E010894A11CB11CC5016EE170E00E9472
:100300008D00E8E2CE2ED12C88249924FF24FA9483
:1003100010E378E5E72E0FEF66E9562E54E6452EFA
:1003200040E9242E41E0342ECE014C969CA78BA7A9
:10033000CE0185969EA78DA7BAA6A9A6B9A4AAA400
:100340000E94EF00853309F4A2C0863390F4823313
:1003500031F1833338F4803309F460C1813309F01B
:10036000A2C11FC0833309F446C0843309F09BC186
:1003700068C0883309F4FDC0893338F4863309F442
:10038000ACC0873309F08FC1CEC08F3409F47CC173
:100390008F3509F46DC1893309F085C114C112E3A9
:1003A00082C119821A821B8290EF9C835D821E8219
:1003B0000F83088719860A8783EC8B87EC860D8765
:1003C0001E861F86188A198A1A8A0B8B1C8A1D8A18
:1003D0001E8A1F8A188E198E88EC8A8F8AEF8B8F5F
:1003E00086E48C8F1D8E8E8F1F8E18A219A21AA2E2
:1003F0001BA211E358C119821A821B828CE18C83E3
:100400001D821E82FF82188619861A861B86EC863C
:100410000D871E861F86088B198A1A8A1B8A1C8ADA
:10042000FD8A1E8A1F8A188E198E1A8E0B8F1C8EBB
:10043000FD8E1E8E1F8E18A219A21AA20BA313E303
:1004400032C119821A821B828CE08C831D821E822B
:10045000FF82188619861A861B86EC860D871E86F3
:100460000F87188A198A1A8A1B8AFC8A1D8A1E8A93
:100470001F8A188E198E1A8E0B8FFC8E1D8E1E8E63
:100480001F8E18A219A21AA20BA314E30CC1198281
:100490001A821B8284E18C831D821E82FF82188651
:1004A00019861A861B86EC860D871E860F87088B99
:1004B000198A1A8A1B8AFC8AFD8A1E8A1F8A188E4C
:1004C000198E1A8E0B8FFC8EFD8E1E8E1F8E18A21B
:1004D00019A21AA20BA315E3E6C019821A821B8285
:1004E0008AE28C831D821E82FF82188619861A86F4
:1004F0001B86EC860D871E861F86188A098B1A8A32
:100500001B8A1C8A1D8AFE8A1F8A188E198E1A8ED3
:100510000B8F1C8E1D8EFE8E1F8E18A219A21AA282
:100520000BA316E3C0C019821A821B8282E38C835C
:100530001D821E82FF82088719860A871B86EC8629
:100540000D871E860F87188A098B1A8A1B8AFC8AD8
:100550001D8AFE8A1F8A188E198E1A8E0B8FFC8EAA
:100560001D8EFE8E1F8E18A219A21AA20BA317E3CE
:100570009AC019821A821B8294E49C8380EF8D8337
:100580001E820F83088794E299870A871B861C8640
:100590000D871E861F86088B198A0A8B1B8A1C8A68
:1005A0001D8A1E8A1F8A188E198E84E18A8F5B8E9F
:1005B0001C8E1D8E1E8E1F8E18A219A290E59AA366
:1005C0004BA218E370C019821A821B824C8286EEFD
:1005D0008D831E820F83088719860A8793E29B8783
:1005E0001C860D871E860F87188A198A0A8B87E357
:1005F0008B8B1C8A1D8A1E8A1F8A188E198E80EA90
:100600008A8F87ED8B8F1C8E1D8E1E8E1F8E18A2DB
:1006100019A25AA281E08BA319E345C019821A825C
:100620001B8284EB8C839CED9D831E820F83088745
:1006300019860A871B861C860D871E860F87188AD7
:10064000198A0A8B88E28B8B1C8A1D8A1E8A1F8A54
:10065000188E82ED898F1A8E9B8F1C8E1D8E1E8E9A
:100660001F8E18A219A280E58AA34BA210E31BC01B
:10067000F30111928BA59CA5E817F907D1F73BE18F
:10068000C32ED12C1FE50FC09FEFF91619F42EE1F0
:10069000F22E02C0FF24FA9488E893E1F101319729
:1006A000F1F70197D9F7812F83538630A8F488ECAE
:1006B000C816D10409F04CC08C858114910421F432
:1006C0008436C0F58F5F04C0882309F445C081508B
:1006D0008C87CC24DD2444C0123309F041C09FE153
:1006E000C916D104ACF1892859F509830A830B8313
:1006F0001C821D821E820F83088784E289870A87F5
:1007000086E48B871C860D871E860F87088B098BD6
:100710000A8B1B8A0C8B0D8B0E8B0F8B188E198EF0
:100720001A8E1B8E0C8F0D8F0E8F0F8F18A219A291
:100730001AA21BA2CC24DD2491E0892E912C10C09A
:10074000F30111928DA59EA5E817F907D1F704C012
:100750000894C11CD11C04C0CC24DD248824992415
:100760008B2D9A2D63E270E00E948D00E9CDF89404
:02077000FFCFB9
:00000001FF
